{
  "_format": "hh-sol-artifact-1",
  "contractName": "WavePortal",
  "sourceName": "contracts/WavePortal.sol",
  "abi": [
    {
      "inputs": [],
      "stateMutability": "nonpayable",
      "type": "constructor"
    },
    {
      "inputs": [],
      "name": "getTotalWaves",
      "outputs": [
        {
          "internalType": "uint256",
          "name": "",
          "type": "uint256"
        }
      ],
      "stateMutability": "view",
      "type": "function"
    },
    {
      "inputs": [],
      "name": "wave",
      "outputs": [],
      "stateMutability": "nonpayable",
      "type": "function"
    }
  ],
  "bytecode": "0x608060405234801561001057600080fd5b5061003c6040518060600160405280603a8152602001610755603a913961004160201b6101711760201c565b6101bb565b6100dd816040516024016100559190610199565b6040516020818303038152906040527f41304fac000000000000000000000000000000000000000000000000000000007bffffffffffffffffffffffffffffffffffffffffffffffffffffffff19166020820180517bffffffffffffffffffffffffffffffffffffffffffffffffffffffff83818316178352505050506100e060201b60201c565b50565b60008151905060006a636f6e736f6c652e6c6f679050602083016000808483855afa5050505050565b600081519050919050565b600082825260208201905092915050565b60005b83811015610143578082015181840152602081019050610128565b60008484015250505050565b6000601f19601f8301169050919050565b600061016b82610109565b6101758185610114565b9350610185818560208601610125565b61018e8161014f565b840191505092915050565b600060208201905081810360008301526101b38184610160565b905092915050565b61058b806101ca6000396000f3fe608060405234801561001057600080fd5b50600436106100365760003560e01c80636fe15b441461003b5780639a2cdc0814610045575b600080fd5b610043610063565b005b61004d610120565b60405161005a9190610384565b60405180910390f35b600160008082825461007591906103ce565b925050819055506001339080600181540180825580915050600190039060005260206000200160009091909190916101000a81548173ffffffffffffffffffffffffffffffffffffffff021916908373ffffffffffffffffffffffffffffffffffffffff16021790555061011e6040518060400160405280600d81526020017f25732068617320776176656421000000000000000000000000000000000000008152503361020a565b565b60006101666040518060400160405280601781526020017f5765206861766520256420746f74616c207761766573210000000000000000008152506001805490506102a6565b600180549050905090565b610207816040516024016101859190610492565b6040516020818303038152906040527f41304fac000000000000000000000000000000000000000000000000000000007bffffffffffffffffffffffffffffffffffffffffffffffffffffffff19166020820180517bffffffffffffffffffffffffffffffffffffffffffffffffffffffff8381831617835250505050610342565b50565b6102a282826040516024016102209291906104f5565b6040516020818303038152906040527f319af333000000000000000000000000000000000000000000000000000000007bffffffffffffffffffffffffffffffffffffffffffffffffffffffff19166020820180517bffffffffffffffffffffffffffffffffffffffffffffffffffffffff8381831617835250505050610342565b5050565b61033e82826040516024016102bc929190610525565b6040516020818303038152906040527fb60e72cc000000000000000000000000000000000000000000000000000000007bffffffffffffffffffffffffffffffffffffffffffffffffffffffff19166020820180517bffffffffffffffffffffffffffffffffffffffffffffffffffffffff8381831617835250505050610342565b5050565b60008151905060006a636f6e736f6c652e6c6f679050602083016000808483855afa5050505050565b6000819050919050565b61037e8161036b565b82525050565b60006020820190506103996000830184610375565b92915050565b7f4e487b7100000000000000000000000000000000000000000000000000000000600052601160045260246000fd5b60006103d98261036b565b91506103e48361036b565b92508282019050808211156103fc576103fb61039f565b5b92915050565b600081519050919050565b600082825260208201905092915050565b60005b8381101561043c578082015181840152602081019050610421565b60008484015250505050565b6000601f19601f8301169050919050565b600061046482610402565b61046e818561040d565b935061047e81856020860161041e565b61048781610448565b840191505092915050565b600060208201905081810360008301526104ac8184610459565b905092915050565b600073ffffffffffffffffffffffffffffffffffffffff82169050919050565b60006104df826104b4565b9050919050565b6104ef816104d4565b82525050565b6000604082019050818103600083015261050f8185610459565b905061051e60208301846104e6565b9392505050565b6000604082019050818103600083015261053f8185610459565b905061054e6020830184610375565b939250505056fea2646970667358221220f062561c209e72b30868434f797838cdc4e15de91ad7279034021b9f2663028264736f6c63430008110033576f77206d7920666972737420736d61727420636f6e747261637421204e6f77206576657279626f647920646f20746865207761616161766521",
  "linkReferences": {},
  "deployedLinkReferences": {}
}